{
  "contractName": "Contract",
  "abi": [
    {
      "constant": true,
      "inputs": [],
      "name": "isPatient",
      "outputs": [
        {
          "name": "",
          "type": "bool"
        }
      ],
      "payable": false,
      "stateMutability": "view",
      "type": "function"
    },
    {
      "constant": true,
      "inputs": [],
      "name": "isDoctor",
      "outputs": [
        {
          "name": "",
          "type": "bool"
        }
      ],
      "payable": false,
      "stateMutability": "view",
      "type": "function"
    },
    {
      "constant": true,
      "inputs": [],
      "name": "isAdmin",
      "outputs": [
        {
          "name": "",
          "type": "bool"
        }
      ],
      "payable": false,
      "stateMutability": "view",
      "type": "function"
    },
    {
      "constant": false,
      "inputs": [],
      "name": "registerAsPatient",
      "outputs": [],
      "payable": false,
      "stateMutability": "nonpayable",
      "type": "function"
    },
    {
      "constant": false,
      "inputs": [],
      "name": "registerAsAdmin",
      "outputs": [],
      "payable": false,
      "stateMutability": "nonpayable",
      "type": "function"
    },
    {
      "constant": false,
      "inputs": [],
      "name": "registerAsDoctor",
      "outputs": [],
      "payable": false,
      "stateMutability": "nonpayable",
      "type": "function"
    },
    {
      "constant": false,
      "inputs": [
        {
          "name": "patientAddress",
          "type": "address"
        },
        {
          "name": "CID",
          "type": "string"
        }
      ],
      "name": "addPatientFiles",
      "outputs": [],
      "payable": false,
      "stateMutability": "nonpayable",
      "type": "function"
    },
    {
      "constant": true,
      "inputs": [
        {
          "name": "patientAddress",
          "type": "address"
        }
      ],
      "name": "getPatientFiles",
      "outputs": [
        {
          "name": "",
          "type": "string[]"
        }
      ],
      "payable": false,
      "stateMutability": "view",
      "type": "function"
    }
  ],
  "bytecode": "0x608060405234801561001057600080fd5b50610d8c806100206000396000f3fe608060405260043610610088576000357c010000000000000000000000000000000000000000000000000000000090048063498d55b81461008d5780634bc6da41146100a45780635962b430146100cd5780636ba7fe7f146100f8578063a99ad4ee1461010f578063b6db75a014610126578063b986b60814610151578063c1816dfb1461017c575b600080fd5b34801561009957600080fd5b506100a26101b9565b005b3480156100b057600080fd5b506100cb60048036036100c69190810190610852565b610225565b005b3480156100d957600080fd5b506100e26102fd565b6040516100ef9190610b5d565b60405180910390f35b34801561010457600080fd5b5061010d610318565b005b34801561011b57600080fd5b50610124610384565b005b34801561013257600080fd5b5061013b6103f0565b6040516101489190610b5d565b60405180910390f35b34801561015d57600080fd5b5061016661040b565b6040516101739190610b5d565b60405180910390f35b34801561018857600080fd5b506101a3600480360361019e9190810190610829565b610426565b6040516101b09190610b3b565b60405180910390f35b6101cd3360006105a690919063ffffffff16565b15151561020f576040517f08c379a000000000000000000000000000000000000000000000000000000000815260040161020690610bf8565b60405180910390fd5b61022333600061067090919063ffffffff16565b565b6102398260046105a690919063ffffffff16565b151561027a576040517f08c379a000000000000000000000000000000000000000000000000000000000815260040161027190610bd8565b60405180910390fd5b600460010160008373ffffffffffffffffffffffffffffffffffffffff1673ffffffffffffffffffffffffffffffffffffffff1681526020019081526020016000208190806001815401808255809150509060018203906000526020600020016000909192909190915090805190602001906102f792919061071a565b50505050565b60006103133360046105a690919063ffffffff16565b905090565b61032c3360026105a690919063ffffffff16565b15151561036e576040517f08c379a000000000000000000000000000000000000000000000000000000000815260040161036590610b98565b60405180910390fd5b61038233600261067090919063ffffffff16565b565b6103983360046105a690919063ffffffff16565b1515156103da576040517f08c379a00000000000000000000000000000000000000000000000000000000081526004016103d190610c18565b60405180910390fd5b6103ee33600461067090919063ffffffff16565b565b60006104063360006105a690919063ffffffff16565b905090565b60006104213360026105a690919063ffffffff16565b905090565b606061043c8260046105a690919063ffffffff16565b151561047d576040517f08c379a000000000000000000000000000000000000000000000000000000000815260040161047490610bd8565b60405180910390fd5b600460010160008373ffffffffffffffffffffffffffffffffffffffff1673ffffffffffffffffffffffffffffffffffffffff168152602001908152602001600020805480602002602001604051908101604052809291908181526020016000905b8282101561059b578382906000526020600020018054600181600116156101000203166002900480601f0160208091040260200160405190810160405280929190818152602001828054600181600116156101000203166002900480156105875780601f1061055c57610100808354040283529160200191610587565b820191906000526020600020905b81548152906001019060200180831161056a57829003601f168201915b5050505050815260200190600101906104df565b505050509050919050565b60008073ffffffffffffffffffffffffffffffffffffffff168273ffffffffffffffffffffffffffffffffffffffff1614151515610619576040517f08c379a000000000000000000000000000000000000000000000000000000000815260040161061090610bb8565b60405180910390fd5b8260000160008373ffffffffffffffffffffffffffffffffffffffff1673ffffffffffffffffffffffffffffffffffffffff16815260200190815260200160002060009054906101000a900460ff16905092915050565b61067a82826105a6565b1515156106bc576040517f08c379a00000000000000000000000000000000000000000000000000000000081526004016106b390610b78565b60405180910390fd5b60018260000160008373ffffffffffffffffffffffffffffffffffffffff1673ffffffffffffffffffffffffffffffffffffffff16815260200190815260200160002060006101000a81548160ff0219169083151502179055505050565b828054600181600116156101000203166002900490600052602060002090601f016020900481019282601f1061075b57805160ff1916838001178555610789565b82800160010185558215610789579182015b8281111561078857825182559160200191906001019061076d565b5b509050610796919061079a565b5090565b6107bc91905b808211156107b85760008160009055506001016107a0565b5090565b90565b60006107cb8235610ced565b905092915050565b600082601f83011215156107e657600080fd5b81356107f96107f482610c65565b610c38565b9150808252602083016020830185838301111561081557600080fd5b610820838284610cff565b50505092915050565b60006020828403121561083b57600080fd5b6000610849848285016107bf565b91505092915050565b6000806040838503121561086557600080fd5b6000610873858286016107bf565b925050602083013567ffffffffffffffff81111561089057600080fd5b61089c858286016107d3565b9150509250929050565b60006108b182610c9e565b808452602084019350836020820285016108ca85610c91565b60005b848110156109035783830388526108e5838351610923565b92506108f082610cb4565b91506020880197506001810190506108cd565b508196508694505050505092915050565b61091d81610cc1565b82525050565b600061092e82610ca9565b808452610942816020860160208601610d0e565b61094b81610d41565b602085010191505092915050565b6000601f82527f526f6c65733a206163636f756e7420616c72656164792068617320726f6c65006020830152604082019050919050565b6000602782527f4163636f756e7420616c7265616479207265676973746572656420617320616e60208301527f20446f63746f72000000000000000000000000000000000000000000000000006040830152606082019050919050565b6000602382527f526f6c65733a206163636f756e742068617320746865207a65726f206164647260208301527f65737300000000000000000000000000000000000000000000000000000000006040830152606082019050919050565b6000601182527f70617469656e74206e6f7420666f756e640000000000000000000000000000006020830152604082019050919050565b6000602682527f4163636f756e7420616c7265616479207265676973746572656420617320616e60208301527f2041646d696e00000000000000000000000000000000000000000000000000006040830152606082019050919050565b6000602782527f4163636f756e7420616c7265616479207265676973746572656420617320612060208301527f70617469656e74000000000000000000000000000000000000000000000000006040830152606082019050919050565b60006020820190508181036000830152610b5581846108a6565b905092915050565b6000602082019050610b726000830184610914565b92915050565b60006020820190508181036000830152610b9181610959565b9050919050565b60006020820190508181036000830152610bb181610990565b9050919050565b60006020820190508181036000830152610bd1816109ed565b9050919050565b60006020820190508181036000830152610bf181610a4a565b9050919050565b60006020820190508181036000830152610c1181610a81565b9050919050565b60006020820190508181036000830152610c3181610ade565b9050919050565b6000604051905081810181811067ffffffffffffffff82111715610c5b57600080fd5b8060405250919050565b600067ffffffffffffffff821115610c7c57600080fd5b601f19601f8301169050602081019050919050565b6000602082019050919050565b600081519050919050565b600081519050919050565b6000602082019050919050565b60008115159050919050565b600073ffffffffffffffffffffffffffffffffffffffff82169050919050565b6000610cf882610ccd565b9050919050565b82818337600083830152505050565b60005b83811015610d2c578082015181840152602081019050610d11565b83811115610d3b576000848401525b50505050565b6000601f19601f830116905091905056fea265627a7a723058206ae882e183e5c35abe5341904a9b60f8abb314791858874fe63e2f1b981968c26c6578706572696d656e74616cf50037",
  "source": "//SPDX-License-Identifier: MIT\r\npragma solidity >=0.4.22 <0.9.0;\r\npragma experimental ABIEncoderV2;\r\n\r\nimport \"./Roles.sol\";\r\n\r\ncontract Contract {\r\n    using Roles for Roles.Role;\r\n\r\n    Roles.Role private admin;\r\n    Roles.Role private doctor;\r\n    Roles.Role private patient;\r\n\r\n    modifier onlyAdmin() {\r\n        require(admin.has(msg.sender));\r\n        _;\r\n    }\r\n    modifier onlyDoctororAdmin() {\r\n        require(\r\n            doctor.has(msg.sender) || admin.has(msg.sender),\r\n            \"caller is not an admin or doctor\"\r\n        );\r\n        _;\r\n    }\r\n    modifier onlyPatientorAdmin() {\r\n        require(\r\n            patient.has(msg.sender) || admin.has(msg.sender),\r\n            \"caller is not an admin or patient\"\r\n        );\r\n        _;\r\n    }\r\n\r\n    function isPatient() public view returns (bool) {\r\n        return patient.has(msg.sender);\r\n    }\r\n\r\n    function isDoctor() public view returns (bool) {\r\n        return doctor.has(msg.sender);\r\n    }\r\n\r\n    function isAdmin() public view returns (bool) {\r\n        return admin.has(msg.sender);\r\n    }\r\n\r\n    function registerAsPatient() public {\r\n        require(\r\n            !patient.has(msg.sender),\r\n            \"Account already registered as a patient\"\r\n        );\r\n        patient.add(msg.sender);\r\n    }\r\n\r\n    function registerAsAdmin() public {\r\n        require(\r\n            !admin.has(msg.sender),\r\n            \"Account already registered as an Admin\"\r\n        );\r\n        admin.add(msg.sender);\r\n    }\r\n\r\n    function registerAsDoctor() public {\r\n        require(\r\n            !doctor.has(msg.sender),\r\n            \"Account already registered as an Doctor\"\r\n        );\r\n        doctor.add(msg.sender);\r\n    }\r\n\r\n    function addPatientFiles(address patientAddress, string memory CID) public {\r\n        require(patient.has(patientAddress), \"patient not found\");\r\n        patient.files[patientAddress].push(CID);\r\n    }\r\n\r\n    // function grantAccess(address doctorAddress) public onlyPatientorAdmin(){}\r\n\r\n    // function revokeAccess(address doctorAddress) public onlyDoctororAdmin(){}\r\n\r\n    function getPatientFiles(\r\n        address patientAddress\r\n    ) public view returns (string[] memory) {\r\n        require(patient.has(patientAddress), \"patient not found\");\r\n        return patient.files[patientAddress];\r\n    }\r\n}\r\n",
  "sourcePath": "C:\\Users\\asus\\Documents\\GitHub\\College\\software\\ehr-blockchain\\contracts\\Contract.sol",
  "compiler": {
    "name": "solc",
    "version": "0.5.1+commit.c8a2cb62.Emscripten.clang"
  },
  "schemaVersion": "3.4.16",
  "updatedAt": "2023-10-29T06:44:02.977Z",
  "networkType": "ethereum",
  "devdoc": {
    "methods": {}
  },
  "userdoc": {
    "methods": {}
  }
}