{
  "contractName": "Contract",
  "abi": [
    {
      "constant": true,
      "inputs": [],
      "name": "isPatient",
      "outputs": [
        {
          "name": "",
          "type": "bool"
        }
      ],
      "payable": false,
      "stateMutability": "view",
      "type": "function"
    },
    {
      "constant": true,
      "inputs": [],
      "name": "isDoctor",
      "outputs": [
        {
          "name": "",
          "type": "bool"
        }
      ],
      "payable": false,
      "stateMutability": "view",
      "type": "function"
    },
    {
      "constant": true,
      "inputs": [],
      "name": "isAdmin",
      "outputs": [
        {
          "name": "",
          "type": "bool"
        }
      ],
      "payable": false,
      "stateMutability": "view",
      "type": "function"
    },
    {
      "constant": false,
      "inputs": [],
      "name": "registerAsPatient",
      "outputs": [],
      "payable": false,
      "stateMutability": "nonpayable",
      "type": "function"
    },
    {
      "constant": false,
      "inputs": [],
      "name": "registerAsAdmin",
      "outputs": [],
      "payable": false,
      "stateMutability": "nonpayable",
      "type": "function"
    },
    {
      "constant": false,
      "inputs": [],
      "name": "registerAsDoctor",
      "outputs": [],
      "payable": false,
      "stateMutability": "nonpayable",
      "type": "function"
    }
  ],
  "bytecode": "0x608060405234801561001057600080fd5b50610615806100206000396000f3fe608060405260043610610072576000357c010000000000000000000000000000000000000000000000000000000090048063498d55b8146100775780635962b4301461008e5780636ba7fe7f146100bd578063a99ad4ee146100d4578063b6db75a0146100eb578063b986b6081461011a575b600080fd5b34801561008357600080fd5b5061008c610149565b005b34801561009a57600080fd5b506100a361020e565b604051808215151515815260200191505060405180910390f35b3480156100c957600080fd5b506100d2610229565b005b3480156100e057600080fd5b506100e96102ee565b005b3480156100f757600080fd5b506101006103b3565b604051808215151515815260200191505060405180910390f35b34801561012657600080fd5b5061012f6103ce565b604051808215151515815260200191505060405180910390f35b61015d3360006103e990919063ffffffff16565b1515156101f8576040517f08c379a00000000000000000000000000000000000000000000000000000000081526004018080602001828103825260268152602001807f4163636f756e7420616c7265616479207265676973746572656420617320616e81526020017f2041646d696e000000000000000000000000000000000000000000000000000081525060400191505060405180910390fd5b61020c33600061050c90919063ffffffff16565b565b60006102243360026103e990919063ffffffff16565b905090565b61023d3360016103e990919063ffffffff16565b1515156102d8576040517f08c379a00000000000000000000000000000000000000000000000000000000081526004018080602001828103825260278152602001807f4163636f756e7420616c7265616479207265676973746572656420617320616e81526020017f20446f63746f720000000000000000000000000000000000000000000000000081525060400191505060405180910390fd5b6102ec33600161050c90919063ffffffff16565b565b6103023360026103e990919063ffffffff16565b15151561039d576040517f08c379a00000000000000000000000000000000000000000000000000000000081526004018080602001828103825260278152602001807f4163636f756e7420616c7265616479207265676973746572656420617320612081526020017f70617469656e740000000000000000000000000000000000000000000000000081525060400191505060405180910390fd5b6103b133600261050c90919063ffffffff16565b565b60006103c93360006103e990919063ffffffff16565b905090565b60006103e43360016103e990919063ffffffff16565b905090565b60008073ffffffffffffffffffffffffffffffffffffffff168273ffffffffffffffffffffffffffffffffffffffff16141515156104b5576040517f08c379a00000000000000000000000000000000000000000000000000000000081526004018080602001828103825260238152602001807f526f6c65733a206163636f756e742068617320746865207a65726f206164647281526020017f657373000000000000000000000000000000000000000000000000000000000081525060400191505060405180910390fd5b8260000160008373ffffffffffffffffffffffffffffffffffffffff1673ffffffffffffffffffffffffffffffffffffffff16815260200190815260200160002060009054906101000a900460ff16905092915050565b61051682826103e9565b15151561058b576040517f08c379a000000000000000000000000000000000000000000000000000000000815260040180806020018281038252601f8152602001807f526f6c65733a206163636f756e7420616c72656164792068617320726f6c650081525060200191505060405180910390fd5b60018260000160008373ffffffffffffffffffffffffffffffffffffffff1673ffffffffffffffffffffffffffffffffffffffff16815260200190815260200160002060006101000a81548160ff021916908315150217905550505056fea165627a7a72305820232d2c8523118807d91e4698bb798e7ba1b015b3a660d420af14b157ae5877c50029",
  "source": "//SPDX-License-Identifier: MIT\r\npragma solidity >=0.4.22 <0.9.0;\r\n\r\nimport \"./Roles.sol\";\r\n\r\ncontract Contract {\r\n    using Roles for Roles.Role;\r\n\r\n    Roles.Role private admin;\r\n    Roles.Role private doctor;\r\n    Roles.Role private patient;\r\n\r\n    function isPatient() public view returns (bool) {\r\n        return patient.has(msg.sender);\r\n    }\r\n\r\n    function isDoctor() public view returns (bool) {\r\n        return doctor.has(msg.sender);\r\n    }\r\n\r\n    function isAdmin() public view returns (bool) {\r\n        return admin.has(msg.sender);\r\n    }\r\n\r\n    function registerAsPatient() public {\r\n        require(\r\n            !patient.has(msg.sender),\r\n            \"Account already registered as a patient\"\r\n        );\r\n        patient.add(msg.sender);\r\n    }\r\n    \r\n    function registerAsAdmin() public {\r\n        require(!admin.has(msg.sender), \"Account already registered as an Admin\");\r\n        admin.add(msg.sender);\r\n    }\r\n    \r\n    function registerAsDoctor() public {\r\n        require(!doctor.has(msg.sender), \"Account already registered as an Doctor\");\r\n        doctor.add(msg.sender);\r\n    }\r\n}\r\n",
  "sourcePath": "C:\\Users\\asus\\Documents\\GitHub\\College\\software\\ehr-blockchain\\contracts\\Contract.sol",
  "compiler": {
    "name": "solc",
    "version": "0.5.1+commit.c8a2cb62.Emscripten.clang"
  },
  "schemaVersion": "3.4.16",
  "updatedAt": "2023-10-04T21:54:16.454Z",
  "networkType": "ethereum",
  "devdoc": {
    "methods": {}
  },
  "userdoc": {
    "methods": {}
  }
}