{
  "contractName": "Roles",
  "abi": [
    {
      "constant": true,
      "inputs": [],
      "name": "adminAddress",
      "outputs": [
        {
          "name": "",
          "type": "address"
        }
      ],
      "payable": false,
      "stateMutability": "view",
      "type": "function"
    },
    {
      "inputs": [],
      "payable": false,
      "stateMutability": "nonpayable",
      "type": "constructor"
    },
    {
      "constant": false,
      "inputs": [
        {
          "name": "newAdmin",
          "type": "address"
        }
      ],
      "name": "addAdmin",
      "outputs": [],
      "payable": false,
      "stateMutability": "nonpayable",
      "type": "function"
    }
  ],
  "bytecode": "0x608060405234801561001057600080fd5b50336000806101000a81548173ffffffffffffffffffffffffffffffffffffffff021916908373ffffffffffffffffffffffffffffffffffffffff16021790555060018060000160003373ffffffffffffffffffffffffffffffffffffffff1673ffffffffffffffffffffffffffffffffffffffff16815260200190815260200160002060006101000a81548160ff0219169083151502179055506102a5806100ba6000396000f3fe608060405260043610610046576000357c010000000000000000000000000000000000000000000000000000000090048063704802751461004b578063fc6f94681461009c575b600080fd5b34801561005757600080fd5b5061009a6004803603602081101561006e57600080fd5b81019080803573ffffffffffffffffffffffffffffffffffffffff1690602001909291905050506100f3565b005b3480156100a857600080fd5b506100b1610254565b604051808273ffffffffffffffffffffffffffffffffffffffff1673ffffffffffffffffffffffffffffffffffffffff16815260200191505060405180910390f35b6000809054906101000a900473ffffffffffffffffffffffffffffffffffffffff1673ffffffffffffffffffffffffffffffffffffffff163373ffffffffffffffffffffffffffffffffffffffff161415156101b7576040517f08c379a000000000000000000000000000000000000000000000000000000000815260040180806020018281038252601d8152602001807f526f6c65733a2063616c6c6572206973206e6f7420616e2061646d696e00000081525060200191505060405180910390fd5b60018060000160008373ffffffffffffffffffffffffffffffffffffffff1673ffffffffffffffffffffffffffffffffffffffff16815260200190815260200160002060006101000a81548160ff021916908315150217905550806000806101000a81548173ffffffffffffffffffffffffffffffffffffffff021916908373ffffffffffffffffffffffffffffffffffffffff16021790555050565b6000809054906101000a900473ffffffffffffffffffffffffffffffffffffffff168156fea165627a7a72305820051d421e480bf528f8b9e901aec202e26be926665b617b9501f734ae294bbc410029",
  "source": "//SPDX-License-Identifier: MIT\r\npragma solidity >=0.4.22 <0.9.0;\r\n\r\ncontract Roles {\r\n    struct Admin {\r\n        mapping(address => bool) bearer;\r\n    }\r\n\r\n    struct Doctor {\r\n        mapping(address => bool) bearer;\r\n    }\r\n\r\n    struct Patient {\r\n        mapping(address => bool) bearer;\r\n        bytes32[] files; // array to store file CIDs\r\n    }\r\n\r\n    address public adminAddress;\r\n    Admin private admins; // Define an Admin struct to manage admins\r\n\r\n    constructor() public {\r\n        adminAddress = msg.sender; // Initialize the admin's address\r\n        admins.bearer[msg.sender] = true; // Make the contract deployer the initial admin\r\n    }\r\n\r\n    function addAdmin(address newAdmin) public onlyAdmin() {\r\n        admins.bearer[newAdmin] = true; // Add a new address as an admin\r\n        adminAddress = newAdmin; // Update the adminAddress to the new admin\r\n    }\r\n\r\n    function addPatient(Patient storage patient, address account) internal {\r\n        require(\r\n            !isPatient(patient, account),\r\n            \"Roles: account already has role\"\r\n        );\r\n        patient.bearer[account] = true;\r\n    }\r\n\r\n    function addDoctor(Doctor storage doctor, address account) internal {\r\n        require(!isDoctor(doctor, account), \"Roles: account already has role\");\r\n        doctor.bearer[account] = true;\r\n    }\r\n\r\n    function removePatient(Patient storage patient, address account) internal onlyAdmin() {\r\n        require(\r\n            isPatient(patient, account),\r\n            \"Roles: account does not have the role\"\r\n        );\r\n        patient.bearer[account] = false;\r\n    }\r\n\r\n    function removeDoctor(Patient storage patient, address account) internal onlyAdmin() {\r\n        require(\r\n            isPatient(patient, account),\r\n            \"Roles: account does not have the role\"\r\n        );\r\n        patient.bearer[account] = false;\r\n    }\r\n\r\n    function isPatient(\r\n        Patient storage patient,\r\n        address account\r\n    ) internal view returns (bool) {\r\n        require(account != address(0), \"Roles: account has the zero address\");\r\n        return patient.bearer[account];\r\n    }\r\n\r\n    function isDoctor(\r\n        Doctor storage doctor,\r\n        address account\r\n    ) internal view returns (bool) {\r\n        require(account != address(0), \"Roles: account has the zero address\");\r\n        return doctor.bearer[account];\r\n    }\r\n\r\n    function isAdmin(\r\n        Admin storage admin,\r\n        address account\r\n    ) internal view returns (bool) {\r\n        require(account != address(0), \"Roles: account has the zero address\");\r\n        return admin.bearer[account];\r\n    }\r\n\r\n    modifier onlyAdmin() {\r\n        require(msg.sender == adminAddress, \"Roles: caller is not an admin\");\r\n        _;\r\n    }\r\n}\r\n",
  "sourcePath": "C:\\Users\\asus\\Documents\\GitHub\\College\\software\\ehr-blockchain\\contracts\\Roles.sol",
  "compiler": {
    "name": "solc",
    "version": "0.5.1+commit.c8a2cb62.Emscripten.clang"
  },
  "schemaVersion": "3.4.16",
  "updatedAt": "2023-10-22T17:30:06.951Z",
  "networkType": "ethereum",
  "devdoc": {
    "methods": {}
  },
  "userdoc": {
    "methods": {}
  }
}